:100000000C946D000C9495000C9495000C94950044
:100010000C9495000C9495000C9495000C9495000C
:100020000C9495000C9495000C9495000C94BB0CCA
:100030000C9495000C9495000C9495000C949500EC
:100040000C947D0E0C9495000C94EA030C94C4035C
:100050000C9495000C9495000C9495000C949500CC
:100060000C94B7080C949500A601AC01B201B8013C
:10007000BE01C401CA0105030C0313031A032103C3
:100080003803280338032F03000000080002010092
:100090000003040700000000000000000000000052
:1000A000250028002B0000000000240027002A0063
:1000B000040404040404040402020202020203030E
:1000C0000303030301020408102040800102040816
:1000D0001020010204081020A51011241FBECFEF2C
:1000E000D8E0DEBFCDBF12E0A0E0B1E0E0EAF8E288
:1000F00002C005900D92A030B107D9F724E0A0E02E
:10010000B2E001C01D92A530B207E1F710E0CDE6E4
:10011000D0E004C02197FE010E94E411CC36D10743
:10012000C9F70E94C70E0C944E140C940000CF9295
:10013000DF92EF92FF920F931F93CF93DF936C01A7
:100140007A018B01C0E0D0E0CE15DF0589F0D8013F
:100150006D918D01D601ED91FC910190F081E02D22
:10016000C6010995892B11F47E0102C02196ECCFBE
:10017000C701DF91CF911F910F91FF90EF90DF901A
:10018000CF900895FC01918D828D981761F0828D3A
:10019000DF01A80FB11D5D968C91928D9F5F9F73BB
:1001A000928F90E008958FEF9FEF0895FC01918D5D
:1001B000828D981731F0828DE80FF11D858D90E0CA
:1001C00008958FEF9FEF0895FC01918D228D892F67
:1001D00090E0805C9F4F821B91098F73992708954F
:1001E00083ED92E00E94E40021E0892B09F420E0F5
:1001F000822F0895FC01848DDF01A80FB11DA35A41
:10020000BF4F2C91848D90E001968F739927848F36
:10021000A689B7892C93A089B1898C9180648C932D
:10022000938D848D981306C00288F389E02D808118
:100230008F7D80830895EF92FF920F931F93CF934A
:10024000DF93EC0181E0888F9B8D8C8D981305C026
:10025000E889F989808185FD24C0F62E0B8D10E098
:100260000F5F1F4F0F731127E02E8C8DE8120CC00B
:100270000FB607FCFACFE889F989808185FFF5CFB1
:10028000CE010E94FA00F1CF8B8DFE01E80FF11D27
:10029000E35AFF4FF0820B8FEA89FB8980818062ED
:1002A00007C0EE89FF896083E889F98980818064CD
:1002B000808381E090E0DF91CF911F910F91FF90BB
:1002C000EF900895CF93DF93EC01888D8823C9F0D8
:1002D000EA89FB89808185FD05C0A889B9898C914F
:1002E00086FD0FC00FB607FCF5CF808185FFF2CFEA
:1002F000A889B9898C9185FFEDCFCE010E94FA00C3
:10030000E7CFDF91CF91089580E090E0892B29F02D
:100310000E94F00081110C9400000895CF93DF93A8
:100320004770552766277727FA013197EC01A88196
:10033000B981E730F10520F4EC5CFF4F0C94E41137
:100340001496ED91FC91159761E029C01496ED91FA
:10035000FC91159765E023C01496ED91FC911597DB
:1003600064E01DC01496ED91FC91159766E017C0EE
:100370001496ED91FC91159762E011C01496ED91E1
:10038000FC9115976AE00BC01496ED91FC911597BE
:1003900068E005C01496ED91FC91159769E0DF9136
:1003A000CF910994CF93DF93EC01CB01BA0126E002
:1003B00030E040E050E00E94C511623071058105D7
:1003C000910559F18CF46115710581059105F1F0E4
:1003D0006130710581059105C1F5E881F9810480DD
:1003E000F581E02D65E02DC0643071058105910532
:1003F00011F1D4F0653071058105910531F5E88181
:10040000F9810480F581E02D66E01BC0E881F98167
:100410000480F581E02D64E014C0E881F981048056
:10042000F581E02D61E00DC0E881F9810480F5815E
:10043000E02D63E006C0E881F9810480F581E02DBC
:1004400062E0CE01DF91CF910994DF91CF910895C1
:100450004370552766277727DC01ED91FC910480D6
:10046000F581E02D423051056105710571F0433091
:1004700051056105710559F041305105610571055E
:1004800011F065E005C066E003C06AE001C069E004
:100490000994CF93DF93EC01CB01BA0123E030E064
:1004A00040E050E00E94C511613071058105910561
:1004B00081F0623071058105910591F0672B682B01
:1004C000692BC1F4E881F9810480F581E02D64E0B5
:1004D0000DC0E881F9810480F581E02D61E006C05E
:1004E000E881F9810480F581E02D62E0CE01DF91A1
:1004F000CF910994DF91CF910895437055276627D6
:100500007727DC01ED91FC910480F581E02D4230EC
:1005100051056105710571F04330510561057105A3
:1005200059F0413051056105710511F062E005C0D7
:1005300063E003C061E001C060E009940F931F9382
:10054000CF93DF93EC01E881F9810480F581E02D00
:100550008C010D5B1F4FD8018C91811102C060E0AE
:1005600001C062E0CE010995E881F9810480F5813E
:10057000E02DD8018C91811102C061E001C063E0DF
:10058000CE010995EBA5FCA5E230F10538F0EE0FA0
:10059000FF1FEE0FFF1F35973197F1F7E881F981C3
:1005A0000480F581E02DD8018C91811102C060E0BA
:1005B00001C062E0CE01DF91CF911F910F910994AC
:1005C000CF93DF93EC0120E030E0A9016B897C89B7
:1005D0008D899E890E94D71318161CF4EFA5F8A9DF
:1005E00002C0E9A9FAA9DF91CF9109940F931F9353
:1005F000DC011296EC910E2F10E009301105C0F5C8
:10060000F801E55CFF4F0C94E411DC01ED91FC91E5
:100610000084F185E02D29C0DC01ED91FC9102847C
:10062000F385E02D22C0DC01ED91FC910484F58579
:10063000E02D1BC0DC01ED91FC910684F785E02DD7
:1006400014C0DC01ED91FC910088F189E02D0DC012
:10065000DC01ED91FC910288F389E02D06C0DC01FC
:10066000ED91FC910488F589E02D1F910F9109947B
:100670001F910F910895CF92DF92EF92FF920F9307
:100680001F93CF93DF93FC012281243041F0283067
:1006900031F0233031F0263021F012E003C014E0B5
:1006A00001C013E0EC012796E12CF12CC62ED12CD1
:1006B00001E0C6010E2C02C0959587950A94E2F7D9
:1006C000688180FD6027FE01349780810E94310E91
:1006D000FFEFEF1AFF0A2196E11658F3DF91CF9151
:1006E0001F910F91FF90EF90DF90CF900895CF93DF
:1006F000DF93FC012281222329F1EC0183810E94F6
:10070000400D8C810E94400D8A81843011F0883028
:1007100029F48D810E94400D8E8105C0833011F037
:10072000863019F48D810E94400D8EA58F3F51F0C7
:100730000E94400D6DA581E068278EA5DF91CF91C5
:100740000C94310EDF91CF910895CF93DF93FC018C
:1007500022812223A1F0EC010190F081E02D0480A0
:10076000F581E02D60E009958EA58F3F41F00E9454
:10077000400D6DA58EA5DF91CF910C94310EDF91C8
:10078000CF9108950E9449141F920F920FB60F92B5
:1007900011242F933F934F935F936F937F938F9386
:1007A0009F93AF93BF93EF93FF9383ED92E00E94EB
:1007B000FA00FF91EF91BF91AF919F918F917F913F
:1007C0006F915F914F913F912F910F900FBE0F90BE
:1007D0001F9018951F920F920FB60F9211242F930E
:1007E0008F939F93EF93FF93E091E302F091E402E4
:1007F0008081E091E902F091EA0282FD12C09081CD
:100800008091EC028F5F8F732091ED02821751F07F
:10081000E091EC02F0E0ED52FD4F958F8093EC02F9
:1008200001C08081FF91EF919F918F912F910F9047
:100830000FBE0F901F901895CF92DF92EF92FF920C
:100840000F931F93CF93DF93FC01078510892189B4
:1008500032894385548565857685041715072607F3
:10086000370711F480E07FC0DC01AD5BBF4F40175C
:100870005107620773071CF481E08C9301C01C923E
:1008800043A154A165A176A1452B462B472B51F3DB
:100890009FB7F894C090CB02D090CC02E090CD02EC
:1008A000F090CE0286B5A89B07C08F3F29F02FEFAE
:1008B000C21AD20AE20AF20A9FBFFE2CED2CDC2CEF
:1008C000CC24C80ED11CE11CF11C22E0CC0CDD1C98
:1008D000EE1CFF1C2A95D1F707A110A521A532A572
:1008E00043A154A165A176A1400F511F621F731F40
:1008F000401751076207730730F0C416D506E606A5
:10090000F70668F406C0C416D506E606F70608F42E
:10091000A9CFC016D106E206F30608F0A3CF2C91AA
:1009200083859485A585B685222321F00196A11D96
:10093000B11D03C00197A109B10983879487A587D9
:10094000B687EF010190F081E02D4B855C856D85C8
:100950007E850680F781E02DCE010995CFA2D8A62D
:10096000E9A6FAA681E0DF91CF911F910F91FF9048
:10097000EF90DF90CF9008954F925F926F927F92A9
:10098000AF92BF92CF92DF92EF92FF920F931F939D
:10099000CF93DF93EC015A018B012B893C894D8960
:1009A0005E89B501C8010E947812882309F451C0FC
:1009B000CF88D88CE98CFA8C2601370177FA7094AD
:1009C00077F87094A3019201B501C8010E947812D2
:1009D00087FD0BC0A7019601B501C8010E94D7137E
:1009E00018162CF06501780102C07301620120E045
:1009F00030E0A901C701B6010E947812811105C03B
:100A00001BA21CA21DA21EA220C0A701960160E08D
:100A100074E284E799E40E947D129F770E94F612A7
:100A20006BA37CA38DA39EA35E0183E4A80EB11CDF
:100A300011E020E030E0A901C701B6010E94D71300
:100A400018160CF010E0F5011083CB8ADC8AED8AD1
:100A5000FE8ADF91CF911F910F91FF90EF90DF9071
:100A6000CF90BF90AF907F906F905F904F90089520
:100A7000E0910B02F0910C02309729F010920402E1
:100A80001092030209940895CF93DF93AC01E09193
:100A90000D02F0910E023097F1F0909106028091D4
:100AA00005029817C0F090E0292F30E0261737078D
:100AB00054F4D901A555BD4FEA01C20FD31F888157
:100AC0008C939F5FF1CF1092060260930502CB01D9
:100AD000DF91CF910994DF91CF9108950895E0912E
:100AE000060280910502E81730F4F0E0E555FD4F6D
:100AF000808190E008958FEF9FEF08959091060216
:100B000080910502981750F4E92FF0E0E555FD4F6C
:100B1000208130E09F5F9093060202C02FEF3FEFED
:100B2000C90108958091050290E020910602821B80
:100B30009109089585ED8093BC008091BC0084FDEF
:100B4000FCCF10920202089540916402262F30E0FB
:100B5000240F311D21323105DCF4209102022430B2
:100B6000C9F4FC0180E090E0861758F430916402EB
:100B70002191DC01AC5BBD4FA30FB11D2C930196FD
:100B8000F3CF80916402680F6093640280E008955F
:100B900081E0089582E00895CF93DF9300D0CDB730
:100BA000DEB7CB01642F49835A830E94A405498193
:100BB000842F5A81952F0F900F90DF91CF91089538
:100BC000CF93DF931F92CDB7DEB7698361E0CE018B
:100BD00001960E94A40581E090E00F90DF91CF91F3
:100BE000089580E480937C0080917A0080648093F3
:100BF0007A0080917A0086FDFCCF60917800809128
:100C0000790070E0782B7093430260934202072EC4
:100C1000000C880B990B0E94271320E030EC4FE763
:100C200054E40E947D1220E030E849EF53E40E9432
:100C3000DC1320E030E040E85FE30E940C120895EE
:100C40009B012C5F3F4FFB014191BF01FC01419390
:100C5000CF0162177307B9F7CB010895CF93DF93E4
:100C6000CDB7DEB72F970FB6F894DEBF0FBECDBF5E
:100C70008091270290912802019769F443E050E0A7
:100C80006FE372E080E793E00E94CC0510922802A7
:100C90001092270246C080913D0290913E0284301E
:100CA0009105B9F5809118028983E9E3F2E0DE014C
:100CB000129681918D9382E0ED33F807D1F7809100
:100CC00035028E83809136028F8380913702888728
:100CD000809138028987E1E3F2E0DE011A96819182
:100CE0008D9382E0E533F807D1F780911A028E8761
:100CF000809119028F874FE050E0BE016F5F7F4FF8
:100D000080E793E00E94CC0510923E0210923D02D3
:100D100008C0059731F46091000180E793E00E94DC
:100D2000E0052F960FB6F894DEBF0FBECDBFDF9162
:100D3000CF9108950F931F93CF93DF93CDB7DEB775
:100D400067970FB6F894DEBF0FBECDBF80E793E084
:100D50000E947E05811117C081E090E090932802E7
:100D6000809327020FE312E0909105028091060222
:100D7000981709F47FC080E793E00E947E05F80190
:100D800081938F01F1CF8130C9F580E991E00E9414
:100D9000BC0D8E010F5F1F4FB8019091050280912D
:100DA0000602981761F080E793E06E8B7F8B0E94BC
:100DB0007E05F80181938F017F896E89EECF83E2F2
:100DC00092E00E942006BC018FE192E00E94200682
:100DD000BC018BE192E00E942006BC0184E192E01C
:100DE0000E942006FC01219120931302BF018FE095
:100DF00092E00E94200682E090E00AC0823069F40E
:100E000080912702909128020297A1F583E090E05B
:100E100090932802809327022DC0833019F484E038
:100E200090E004C0843039F485E090E090933E0275
:100E300080933D021FC0853039F480E793E00E9423
:100E40007E058093000116C0863049F486E090E06C
:100E50009093280280932702109219020BC08730CA
:100E600049F483E090E0909328028093270281E088
:100E70008093190267960FB6F894DEBF0FBECDBF00
:100E8000DF91CF911F910F9108952F923F924F9232
:100E90005F926F927F928F929F92AF92BF92CF920A
:100EA000DF92EF92FF920F931F93CF93DF9300D0C7
:100EB00000D0CDB7DEB71C01FC0187849088A188E3
:100EC000B28883859485A585B685881A990AAA0A69
:100ED000BB0A63897489858996899B01AC010E944C
:100EE000DC136B017C01F101638D748D858D968D12
:100EF0009B01AC010E940C129B01AC01C701B60121
:100F00000E947D120E94EF1281149104A104B10489
:100F1000A1F462307105810591050CF07CC0F101EE
:100F200013A214A215A216A2138A148A158A168A6D
:100F300013AA14AA15AA16AA03C1F10103A914A998
:100F400025A936A9ED5BFF4F181419041A041B04D8
:100F5000FCF410161106120613064CF468157905F8
:100F60008A059B054CF52081211155C025C001152E
:100F700011052105310509F44EC0681579058A056A
:100F80009B050CF048C08081882309F444C037C019
:100F90001016110612061306F4F400271127980103
:100FA000081919092A093B09601771078207930775
:100FB0001CF42081222379F19B01AC018827992719
:100FC000DC01821B930BA40BB50BF10183AB94AB3B
:100FD000A5ABB6AB20C00115110521053105D9F02F
:100FE000CC24DD247601C818D908EA08FB086C1562
:100FF0007D058E059F057CF4808181110CC03095A4
:101000002095109501951F4F2F4F3F4FF10103ABD6
:1010100014AB25AB36ABF101C3A8D4A8E5A8F6A85C
:1010200081010D5B1F4FC114D104E104F10491F45F
:1010300087A990ADA1ADB2AD83AF94AFA5AFB6AF68
:1010400081E0181419041A041B040CF080E0F80164
:10105000808340C0F10183AC94ACA5ACB6ACA501D3
:101060009401C501B4010E940C122B013C01C7017F
:10107000B6010E94271320E030E040E850E40E94CF
:10108000DC1320E030E040E85FE30E940C129B019B
:10109000AC01C301B2010E947D129B01AC01C501EC
:1010A000B4010E940B124B015C01F101FF964080DC
:1010B0005180628073809201A3010E94D713181699
:1010C00014F042015301A401B501F10143AF54AF43
:1010D00065AF76AFFFEFCF1ADF0AEF0AFF0AF10123
:1010E000C3AAD4AAE5AAF6AA23AD34AD45AD56AD40
:1010F000CA01B90129833A834B835C830E94F612AB
:10110000F10163A374A385A396A329813A814B813E
:101110005C8160E074E284E799E40E947D12F10151
:10112000638B748B858B968BF8012081211108C00D
:10113000DC01CB01B058F101838B948BA58BB68B6E
:101140000F900F900F900F90DF91CF911F910F9103
:10115000FF90EF90DF90CF90BF90AF909F908F90D7
:101160007F906F905F904F903F902F9008951F92C7
:101170000F920FB60F9211242F933F934F935F93CB
:101180006F937F938F939F93AF93BF93EF93FF934F
:101190008091B900887F803609F49CC068F5883258
:1011A00009F45BC090F4803109F454C038F488230A
:1011B00009F4F6C0883009F44DC0F6C0883109F44E
:1011C0004CC0803209F45DC0EFC0803409F468C0BF
:1011D00048F4803309F455C0883309F0E5C08093A2
:1011E0008702D8C0803509F44FC0883509F45DC046
:1011F000883409F0D9C0D6C0883909F4C7C0A8F42A
:10120000883709F467C038F4883609F463C080373A
:1012100009F460C0C9C0883809F4B8C0803909F43D
:101220005FC0803809F0C0C05BC0803B09F486C055
:1012300038F4803A09F466C0883A09F47FC0B4C033
:10124000803C09F4A7C0883C09F4A4C0883B09F499
:101250008AC0AAC08091AA0210C09091A902809170
:10126000A802981770F5E091A90281E08E0F809393
:10127000A902F0E0E857FD4F80818093BB0085EC28
:1012800086C0809387028EC0E091A90281E08E0F14
:101290008093A9028091BB00F0E0E857FD4F808366
:1012A0009091A9028091A8026EC0E091A90281E00C
:1012B0008E0F8093A9028091BB00F0E0E857FD4FAC
:1012C00080838091010281116DC081E080930002D2
:1012D00084EA61C083E08093020210928602CFCF3D
:1012E00080918602803208F051C0E091860281E050
:1012F0008E0F809386028091BB00F0E0EA59FD4F8B
:101300008083BDCF85EC8093BC0010920202809157
:101310008602803230F4E0918602F0E0EA59FD4F17
:1013200010826091860270E0E0910702F09108025D
:1013300086E692E009951092860236C084E080939A
:1013400002021092650210926402E0910902F0918B
:101350000A02099580916402811105C081E08093A1
:10136000640210924402E091650281E08E0F809346
:101370006502F0E0EC5BFD4F80818093BB009091B3
:10138000650280916402981708F479CF85E880930C
:10139000BC000AC085EC8093BC001092020204C01D
:1013A000109287020E949A05FF91EF91BF91AF9131
:1013B0009F918F917F916F915F914F913F912F916D
:1013C0000F900FBE0F901F9018954F925F926F92E3
:1013D0007F928F929F92AF92BF92CF92DF92EF92C5
:1013E000FF92CF93DF934B015C01D42F0E94EF1249
:1013F0006B01770FEE08FF08C701B6010E94FF0DD1
:10140000DD2309F46FC08EEA91E00E94BC0DCFEF9E
:10141000CD0F412C512C32014394D15048F0AAE019
:10142000B0E0A30192010E94F1112B013C01F5CF24
:1014300020E030E0A901C501B4010E94D71387FD67
:1014400009C0C701B6010E9427139B01AC01C50169
:10145000B40106C0C701B6010E942713A50194017B
:101460000E940B126B017C01C301B2010E94251383
:101470009B01AC01C701B6010E94DC130E94F61269
:10148000D62EE72EF82ED92F2AE0822E912CA12CD1
:10149000B12CA50194010E94A311CA01B901232B0B
:1014A000242B252B11F0C150F4CFCC2331F080EB4D
:1014B00091E00E94BC0DC150F8CF4AE06D2D7E2D09
:1014C0008F2D9D2FDF91CF91FF90EF90DF90CF90E8
:1014D000BF90AF909F908F907F906F905F904F9054
:1014E0000C94BE0DDF91CF91FF90EF90DF90CF90E5
:1014F000BF90AF909F908F907F906F905F904F9034
:1015000008958F929F92AF92BF92CF92DF92EF9207
:10151000FF926091CB037091CC038091CD039091A9
:10152000CE0397FF07C090958095709561957F4F8A
:101530008F4F9F4F0E94271320E030E048E453E490
:101540000E947D126B017C012091350230913602A0
:1015500040913702509138020E940B124B015C01FE
:10156000C0923502D0923602E0923702F0923802F1
:101570009B01AC016091390270913A0280913B026B
:1015800090913C020E940C126093390270933A02CF
:1015900080933B0290933C0282EB91E00E94BC0D51
:1015A00041E0C701B6010E94E5098CEA91E00E9482
:1015B000BC0D80EC91E00E94BC0D41E0C501B4017E
:1015C0000E94E5098CEA91E00E94BC0D8FEC91E04D
:1015D0000E94BC0D6091390270913A0280913B02E9
:1015E00090913C0241E00E94E5098CEA91E0FF9075
:1015F000EF90DF90CF90BF90AF909F908F900C9422
:10160000BC0D4F925F926F927F928F929F92AF929A
:10161000BF92CF92DF92EF92FF92CF93DF9300D0F1
:1016200000D0CDB7DEB76B017C011092350210926D
:10163000360210923702109238021092190210925C
:10164000CB031092CC031092CD031092CE031092D4
:10165000CF031092D0031092D1031092D2031092B4
:10166000F3031092F4031092F5031092F603109214
:10167000E3031092E4031092E5031092E603109244
:10168000D3031092D4031092D5031092D6030E9474
:10169000F10569837A838B839C8360932D02709319
:1016A0002E0280932F0290933002C701B6010E9450
:1016B000EF126B017C01DB0128EC30E00E94EA11A3
:1016C0004B015C014090230250902402609025025F
:1016D0007090260229813A814B815C81C301B2015D
:1016E0000E94DC136093290270932A0280932B02DC
:1016F00090932C0280EE91E00E94BC0DC501B401D4
:101700000E94FF0D8CEA91E00E94BC0D8FEE91E0EB
:101710000E94BC0D20E030E048E453E4C301B20174
:101720000E94DC132B013C01B601DD0C880B990BE8
:101730000E9427139B01AC01C301B2010E94DC137C
:101740000E94EF120E94FF0D8CEA91E00E94BC0DF6
:1017500080911A02882349F180918B0390918C0328
:10176000A0918D03B0918E03892B8A2B8B2B61F076
:1017700010928B0310928C0310928D0310928E03A3
:101780008CE793E00E9445078091290290912A02FC
:10179000A0912B02B0912C02B05880932902909313
:1017A0002A02A0932B02B0932C028091CF03909138
:1017B000D003A091D103B091D20388159905AA0551
:1017C000BB0561F08092CF039092D003A092D10329
:1017D000B092D20380EC93E00E94450740912D0225
:1017E00050912E0260912F027091300280EC93E0B4
:1017F0000E94BC044091290250912A0260912B0260
:1018000070912C028CE793E00E94BC0481E08093ED
:1018100019028FB7F8944091CF025091D002609195
:10182000D1027091D2028FBF2FB7F8948091CF026E
:101830009091D002A091D102B091D2022FBF841B0F
:10184000950BA60BB70B8A3F9105A105B105E8F1F1
:101850000E94F1056B017C0160932D0270932E02B2
:1018600080932F02909330029B01AC016091230280
:101870007091240280912502909126020E94DC132F
:101880006093290270932A0280932B0290932C027A
:1018900020E030E048E453E4C701B6010E947D1225
:1018A000609331027093320280933302909334023A
:1018B0000E94810A8FB7F8944091CF025091D002D4
:1018C0006091D1027091D2028FBFC090CF03D090AF
:1018D000D003E090D103F090D2038091CB0390919C
:1018E000CC03A091CD03B091CE03C816D906EA0669
:1018F000FB0609F099CFC0908B03D0908C03E09049
:101900008D03F0908E038091870390918803A091BE
:101910008903B0918A03C816D906EA06FB0609F0C6
:1019200083CF20E030E048E453E460912D027091D1
:101930002E0280912F02909130020E947D126093BE
:1019400031027093320280933302909334020F90ED
:101950000F900F900F90DF91CF91FF90EF90DF905D
:10196000CF90BF90AF909F908F907F906F905F903F
:101970004F900C94810A1F920F920FB60F92112470
:101980002F933F934F935F936F937F938F939F9387
:10199000AF93BF93EF93FF9380911902882341F097
:1019A00080EC93E00E941C048CE793E00E941C04EE
:1019B000FF91EF91BF91AF919F918F917F916F9127
:1019C0005F914F913F912F910F900FBE0F901F90FD
:1019D0001895CF92DF92EF92FF92CF93DF93EC01B5
:1019E000CB8CDC8CED8CFE8C20E030E040E85FE3BB
:1019F000C701B6010E947812882349F16BA97CA91E
:101A00008DA99EA90E942713A70196010E94DC13AD
:101A10000E94EF126BAB7CAB8DAB9EAB86E896E67B
:101A2000A9E6B9E48FAB98AFA9AFBAAF80E090E078
:101A3000A0E8BFE38B8F9C8FAD8FBE8FCE01DF916F
:101A4000CF91FF90EF90DF90CF900C944507DF91FE
:101A5000CF91FF90EF90DF90CF900895009769F0BD
:101A6000FC0101900020E9F73197AF01481B590BA9
:101A7000BC0183ED92E00C94970080E090E0089523
:101A800090E0FC01EC53FF4F2491FC01E055FF4F27
:101A90008491882399F090E0880F991FFC01EA5502
:101AA000FF4FA591B491FC01E456FF4F85919491AD
:101AB0008FB7F894EC91E22BEC938FBF0895CF92FF
:101AC000DF92EF92FF92CF93DF93EC0120E030E0C2
:101AD0004AEF53E46F89788D898D9A8D0E94781230
:101AE000882309F442C080E090E0AAEFB3E48F8B32
:101AF000988FA98FBA8F80E090E0AAEFB4E4FE013E
:101B0000FF9680839183A283B3838BA99CA9ADA9FF
:101B1000BEA9181619061A061B063CF56B897C89A6
:101B20008D899E899B01AC010E94DC136B017C01B5
:101B30006B8D7C8D8D8D9E8D9B01AC010E940C1256
:101B40009B01AC01C701B6010E947D120E94EF12F9
:101B50006BAB7CAB8DAB9EABCE01DF91CF91FF9099
:101B6000EF90DF90CF900C944507DF91CF91FF90DD
:101B7000EF90DF90CF9008950C942E0D8F929F924E
:101B8000AF92BF920F931F93CF93DF93CDB7DEB782
:101B9000A1970FB6F894DEBF0FBECDBF19A2423099
:101BA00008F44AE08E010F5D1F4F842E912CA12C6A
:101BB000B12CA50194010E94A311E62FB901CA011D
:101BC00001501109EA3014F4E05D01C0E95CD8016C
:101BD000EC93232B242B252B61F7C8010E942E0D9B
:101BE000A1960FB6F894DEBF0FBECDBFDF91CF91A7
:101BF0001F910F91BF90AF909F908F900895CF92BB
:101C0000DF92EF92FF92CF93DF9397FF21C06B019A
:101C10007C01E091D302F091D4020190F081E02D9B
:101C20006DE283ED92E00995EC0166277727CB0101
:101C30006C197D098E099F094AE00E94BE0D8C0F28
:101C40009D1FDF91CF91FF90EF90DF90CF9008958F
:101C50004AE0DF91CF91FF90EF90DF90CF900C940E
:101C6000BE0D90E0FC01E857FF4F3491FC01EC53AE
:101C7000FF4F2491FC01E055FF4FE491EE2309F45E
:101C80003BC0332339F1333091F038F43130A9F0CF
:101C9000323001F584B58F7D12C0373091F0383085
:101CA000A1F03430B9F4809180008F7D03C0809121
:101CB00080008F77809380000DC084B58F7784BDBE
:101CC00009C08091B0008F7703C08091B0008F7DF4
:101CD0008093B000F0E0EE0FFF1FE456FF4FA59198
:101CE000B4918FB7F894EC91611103C020952E2325
:101CF00001C02E2B2C938FBF08951F920F920FB609
:101D00000F9211242F933F938F939F93AF93BF9381
:101D10008091CF029091D002A091D102B091D202D5
:101D20003091040423E0230F2D3720F40196A11DE8
:101D3000B11D05C026E8230F0296A11DB11D2093F9
:101D400004048093CF029093D002A093D102B09369
:101D5000D2028091CB029091CC02A091CD02B091A1
:101D6000CE020196A11DB11D8093CB029093CC02AF
:101D7000A093CD02B093CE02BF91AF919F918F916E
:101D80003F912F910F900FBE0F901F901895789450
:101D900084B5826084BD84B5816084BD85B5826070
:101DA00085BD85B5816085BD80916E008160809321
:101DB0006E0010928100809181008260809381008A
:101DC000809181008160809381008091800081609A
:101DD000809380008091B10084608093B1008091F5
:101DE000B00081608093B00080917A00846080931D
:101DF0007A0080917A00826080937A0080917A00E4
:101E0000816080937A0080917A00806880937A0064
:101E10001092C10010922302109224021092250207
:101E20001092260210921F0210922002109221029C
:101E30001092220210921B0210921C0210921D029C
:101E400010921E0286E00E94400D87E00E94400D25
:101E500060E086E00E94310E60E087E00E94310E73
:101E600080EC93E00E945F0D8CE793E00E945F0D91
:101E7000E091E302F091E40282E08083E091DF02EE
:101E8000F091E0021082E091E102F091E2028FEC29
:101E900080831092EB02E091E702F091E80286E085
:101EA0008083E091E502F091E60280818061808389
:101EB000E091E502F091E602808188608083E09104
:101EC000E502F091E602808180688083E091E5027E
:101ED000F091E60280818F7D808380E18093BA005B
:101EE00088E395E090930A028093090284E495E0E8
:101EF0009093080280930702109206021092050246
:101F000010920402109203021092020281E0809368
:101F100001021092000261E082E10E94310E61E054
:101F200083E10E94310E8091B9008E7F8093B900C9
:101F30008091B9008D7F8093B90088E48093B800C8
:101F400085E48093BC008EE296E090930C0280932F
:101F50000B028AE996E090930E0280930D02F894AA
:101F6000109280001092810080E496E090938900A6
:101F700080938800809181008860809381008091A7
:101F8000810081608093810080916F0082608093E6
:101F90006F00789413E0D1E080912702909128029D
:101FA000029709F03FC0809101018823D9F18CE3A9
:101FB00091E00E94BC0D60912302709124028091F7
:101FC00025029091260242E00E94E5098CEA91E008
:101FD0000E94BC0D88E491E00E94BC0D60911F023C
:101FE00070912002809121029091220242E00E9491
:101FF000E5098CEA91E00E94BC0D80E591E00E9429
:10200000BC0D60911B0270911C0280911D02909189
:102010001E0242E00E94E5098CEA91E00E94BC0D9C
:10202000109201018091270290912802039709F0F4
:1020300077C010921A0260E086E00E94310E60E0E4
:1020400087E00E94310E10930001D0931902109284
:102050001802C0E080911302C81750F58091180251
:102060008F5F809318028FE591E00E94BC0D83E79B
:1020700091E00E94BC0D6091180270E080E090E059
:102080004AE00E94BE0D8CEA91E00E94BC0D609176
:1020900014027091150280911602909117020E940D
:1020A000010B80911A028D2780931A02CF5FD2CF45
:1020B00020E030E0A90160910F0270911002809140
:1020C0001102909112020E94D71318161CF58091EC
:1020D00018028F5F8093180281E891E00E94BC0D86
:1020E00083E791E00E94BC0D6091180270E080E0EF
:1020F00090E04AE00E94BE0D8CEA91E00E94BC0D87
:1021000060910F0270911002809111029091120261
:102110000E94010B109228021092270210921902BD
:10212000C0910001C0FF02C060E001C061E086E034
:102130000E94310EC1FF02C060E001C061E087E093
:102140000E94310E0E94840127CF8F929F92AF92FE
:10215000BF92CF92DF92EF92FF920F931F93CF9394
:10216000DF93E3EDF2E01382128288EE93E0A0E0C9
:10217000B0E084839583A683B78326E031E0318382
:10218000208325EC30E03587248724EC30E0378746
:10219000268720EC30E0318B208B21EC30E0338B34
:1021A000228B22EC30E0358B248B26EC30E0378B11
:1021B000268B118E128E138E148EE0E7F3E01382BD
:1021C000128284839583A683B78386E191E091830D
:1021D0008083E0ECF3E086E2A82E81E0B82EB182A5
:1021E000A08288248394828213861486158616869C
:1021F0001786108A118A128A138A148A158A168AF7
:10220000C12CD12C90E8E92E9FE3F92EC78AD08EFD
:10221000E18EF28E138E148E158E168EC78ED0A27E
:10222000E1A2F2A213A214A215A216A201E010E0EC
:1022300014A703A799249A9496A617A210A611A6EC
:1022400012A682E0838383E08483D4E0D583C5E053
:10225000C68313AA14AA15AA16AA17AA10AE11AEFD
:1022600012AE13AE14AE15AE16AEC092FF03D092EE
:102270000004E0920104F092020410920304178219
:10228000108611861286CF010E94770380EC93E0BE
:102290000E94E90CECE7F3E0B182A082828213860F
:1022A0001486158616861786108A118A128A138A52
:1022B000148A158A168AC78AD08EE18EF28E138E02
:1022C000148E158E168EC78ED0A2E1A2F2A213A292
:1022D00014A215A216A214A703A796A617A210A6C9
:1022E00011A612A6D383C483D583C68313AA14AAC6
:1022F00015AA16AA17AA10AE11AE12AE13AE14AEDE
:1023000015AE16AEC092BB03D092BC03E092BD03E3
:10231000F092BE031092BF031782108611861286B8
:10232000CF010E9477038CE793E0DF91CF911F915B
:102330000F91FF90EF90DF90CF90BF90AF909F9064
:102340008F900C94E90CA1E21A2EAA1BBB1BFD0175
:102350000DC0AA1FBB1FEE1FFF1FA217B307E40784
:10236000F50720F0A21BB30BE40BF50B661F771FDC
:10237000881F991F1A9469F76095709580959095BC
:102380009B01AC01BD01CF010895052E97FB1EF402
:1023900000940E94DC1157FD07D00E94A31107FC96
:1023A00003D04EF40C94DC11509540953095219556
:1023B0003F4F4F4F5F4F0895909580957095619571
:1023C0007F4F8F4F9F4F0895EE0FFF1F0590F491A1
:1023D000E02D09940E94FC11B7FF0895821B930B16
:1023E00008950E94FC11A59F900DB49F900DA49F8D
:1023F000800D911D11240895A29FB001B39FC001CB
:10240000A39F700D811D1124911DB29F700D811D20
:102410001124911D08955058BB27AA270E9423120A
:102420000C949D130E948F1338F00E94961320F095
:1024300039F49F3F19F426F40C948C130EF4E095B4
:10244000E7FB0C948613E92F0E94AE1358F3BA17DA
:10245000620773078407950720F079F4A6F50C94BA
:10246000D0130EF4E0950B2EBA2FA02D0B01B9015D
:1024700090010C01CA01A0011124FF27591B99F0FA
:10248000593F50F4503E68F11A16F040A22F232F06
:10249000342F4427585FF3CF469537952795A79556
:1024A000F0405395C9F77EF41F16BA0B620B730BFD
:1024B000840BBAF09150A1F0FF0FBB1F661F771F6E
:1024C000881FC2F70EC0BA0F621F731F841F48F423
:1024D000879577956795B795F7959E3F08F0B0CFAC
:1024E0009395880F08F09927EE0F97958795089593
:1024F0000E94621308F481E008950E9491120C94E6
:102500009D130E94961358F00E948F1340F029F4F7
:102510005F3F29F00C94861351110C94D1130C9445
:102520008C130E94AE1368F39923B1F3552391F3F2
:10253000951B550BBB27AA2762177307840738F032
:102540009F5F5F4F220F331F441FAA1FA9F335D08F
:102550000E2E3AF0E0E832D091505040E695001C43
:10256000CAF72BD0FE2F29D0660F771F881FBB1FFD
:10257000261737074807AB07B0E809F0BB0B802DDB
:10258000BF01FF2793585F4F3AF09E3F510578F007
:102590000C9486130C94D1135F3FE4F3983ED4F36C
:1025A000869577956795B795F7959F5FC9F7880FDB
:1025B000911D9695879597F90895E1E0660F771F2D
:1025C000881FBB1F621773078407BA0720F0621BBE
:1025D000730B840BBA0BEE1F88F7E09508950E94E9
:1025E000F6126894B1110C94D11308950E94B61399
:1025F00088F09F5798F0B92F9927B751B0F0E1F0C4
:10260000660F771F881F991F1AF0BA95C9F714C073
:10261000B13091F00E94D013B1E008950C94D01322
:10262000672F782F8827B85F39F0B93FCCF38695AC
:1026300077956795B395D9F73EF490958095709509
:1026400061957F4F8F4F9F4F0895E89409C097FB86
:102650003EF490958095709561957F4F8F4F9F4F79
:102660009923A9F0F92F96E9BB279395F6958795BD
:1026700077956795B795F111F8CFFAF4BB0F11F480
:1026800060FF1BC06F5F7F4F8F4F9F4F16C0882327
:1026900011F096E911C0772321F09EE8872F762F5D
:1026A00005C0662371F096E8862F70E060E02AF09E
:1026B0009A95660F771F881FDAF7880F969587958A
:1026C00097F90895990F0008550FAA0BE0E8FEEF5F
:1026D00016161706E807F907C0F012161306E407E6
:1026E000F50798F0621B730B840B950B39F40A26DF
:1026F00061F0232B242B252B21F408950A2609F4BD
:10270000A140A6958FEF811D811D089597F99F67C0
:1027100080E870E060E008959FEF80EC0895002469
:102720000A941616170618060906089500240A9436
:1027300012161306140605060895092E0394000CBC
:1027400011F4882352F0BB0F40F4BF2B11F460FF4B
:1027500004C06F5F7F4F8F4F9F4F089557FD905874
:10276000440F551F59F05F3F71F04795880F97FB55
:10277000991F61F09F3F79F087950895121613060F
:102780001406551FF2CF4695F1DF08C0161617063E
:102790001806991FF1CF8695710561050894089573
:1027A000E894BB2766277727CB0197F908950E9405
:1027B000621308F48FEF08950E94EF130C949D1399
:1027C0000E948F1338F00E94961320F0952311F089
:1027D0000C9486130C948C1311240C94D1130E9426
:1027E000AE1370F3959FC1F3950F50E0551F629F94
:1027F000F001729FBB27F00DB11D639FAA27F00D5A
:10280000B11DAA1F649F6627B00DA11D661F829F80
:102810002227B00DA11D621F739FB00DA11D621F65
:10282000839FA00D611D221F749F3327A00D611D82
:10283000231F849F600D211D822F762F6A2F112464
:102840009F5750409AF0F1F088234AF0EE0FFF1F97
:10285000BB1F661F771F881F91505040A9F79E3FEE
:10286000510580F00C9486130C94D1135F3FE4F370
:10287000983ED4F3869577956795B795F795E79544
:102880009F5FC1F7FE2B880F911D9695879597F94D
:10289000089581E090E0F8940C944E14F894FFCFE2
:1028A0000301000000001B019700E400C200D600F5
:1028B000620100000000E005CC0592057E056F0571
:1028C0006E0500000000A50377033B03F602E0025B
:1028D0009E027D0249022802D2018E01576972656B
:1028E0002073697A653A20007475726E733A20001D
:1028F00073706F6F6C206C656E6774683A20004966
:102900006E206D756C7469706C65206C6179657290
:10291000730A0074686973206C61796572203D20C8
:1029200000496E206C617374206C617965720A00D5
:102930004E6577206A6F6220706572616D6574659F
:102940007273207265636569766564200A002E00E3
:10295000300074656D705F7475726E73203D200079
:1029600064656C74615F7475726E73203D200063E2
:10297000757272656E745F7475726E73203D20009F
:1029800073706F6F6C207374657073203D200073DB
:10299000687574746C65207374657073203D2000D5
:00000001FF
