:100000000C946D000C9495000C9495000C94950044
:100010000C9495000C9495000C9495000C9495000C
:100020000C9495000C9495000C9495000C94D30CB2
:100030000C9495000C9495000C9495000C949500EC
:100040000C94950E0C9495000C94EA030C94C40344
:100050000C9495000C9495000C9495000C949500CC
:100060000C94CF080C949500A601AC01B201B80124
:10007000BE01C401CA0105030C0313031A032103C3
:100080003803280338032F03000000080002010092
:100090000003040700000000000000000000000052
:1000A000250028002B0000000000240027002A0063
:1000B000040404040404040402020202020203030E
:1000C0000303030301020408102040800102040816
:1000D0001020010204081020CF1011241FBECFEF02
:1000E000D8E0DEBFCDBF12E0A0E0B1E0E4EFF8E27F
:1000F00002C005900D92A030B107D9F724E0A0E02E
:10010000B2E001C01D92A730B207E1F710E0CDE6E2
:10011000D0E004C02197FE010E940E12CC36D10718
:10012000C9F70E94DF0E0C9478140C940000CF9253
:10013000DF92EF92FF920F931F93CF93DF936C01A7
:100140007A018B01C0E0D0E0CE15DF0589F0D8013F
:100150006D918D01D601ED91FC910190F081E02D22
:10016000C6010995892B11F47E0102C02196ECCFBE
:10017000C701DF91CF911F910F91FF90EF90DF901A
:10018000CF900895FC01918D828D981761F0828D3A
:10019000DF01A80FB11D5D968C91928D9F5F9F73BB
:1001A000928F90E008958FEF9FEF0895FC01918D5D
:1001B000828D981731F0828DE80FF11D858D90E0CA
:1001C00008958FEF9FEF0895FC01918D228D892F67
:1001D00090E0805C9F4F821B91098F73992708954F
:1001E00085ED92E00E94E40021E0892B09F420E0F3
:1001F000822F0895FC01848DDF01A80FB11DA35A41
:10020000BF4F2C91848D90E001968F739927848F36
:10021000A689B7892C93A089B1898C9180648C932D
:10022000938D848D981306C00288F389E02D808118
:100230008F7D80830895EF92FF920F931F93CF934A
:10024000DF93EC0181E0888F9B8D8C8D981305C026
:10025000E889F989808185FD24C0F62E0B8D10E098
:100260000F5F1F4F0F731127E02E8C8DE8120CC00B
:100270000FB607FCFACFE889F989808185FFF5CFB1
:10028000CE010E94FA00F1CF8B8DFE01E80FF11D27
:10029000E35AFF4FF0820B8FEA89FB8980818062ED
:1002A00007C0EE89FF896083E889F98980818064CD
:1002B000808381E090E0DF91CF911F910F91FF90BB
:1002C000EF900895CF93DF93EC01888D8823C9F0D8
:1002D000EA89FB89808185FD05C0A889B9898C914F
:1002E00086FD0FC00FB607FCF5CF808185FFF2CFEA
:1002F000A889B9898C9185FFEDCFCE010E94FA00C3
:10030000E7CFDF91CF91089580E090E0892B29F02D
:100310000E94F00081110C9400000895CF93DF93A8
:100320004770552766277727FA013197EC01A88196
:10033000B981E730F10520F4EC5CFF4F0C940E120C
:100340001496ED91FC91159761E029C01496ED91FA
:10035000FC91159765E023C01496ED91FC911597DB
:1003600064E01DC01496ED91FC91159766E017C0EE
:100370001496ED91FC91159762E011C01496ED91E1
:10038000FC9115976AE00BC01496ED91FC911597BE
:1003900068E005C01496ED91FC91159769E0DF9136
:1003A000CF910994CF93DF93EC01CB01BA0126E002
:1003B00030E040E050E00E94EF11623071058105AD
:1003C000910559F18CF46115710581059105F1F0E4
:1003D0006130710581059105C1F5E881F9810480DD
:1003E000F581E02D65E02DC0643071058105910532
:1003F00011F1D4F0653071058105910531F5E88181
:10040000F9810480F581E02D66E01BC0E881F98167
:100410000480F581E02D64E014C0E881F981048056
:10042000F581E02D61E00DC0E881F9810480F5815E
:10043000E02D63E006C0E881F9810480F581E02DBC
:1004400062E0CE01DF91CF910994DF91CF910895C1
:100450004370552766277727DC01ED91FC910480D6
:10046000F581E02D423051056105710571F0433091
:1004700051056105710559F041305105610571055E
:1004800011F065E005C066E003C06AE001C069E004
:100490000994CF93DF93EC01CB01BA0123E030E064
:1004A00040E050E00E94EF11613071058105910537
:1004B00081F0623071058105910591F0672B682B01
:1004C000692BC1F4E881F9810480F581E02D64E0B5
:1004D0000DC0E881F9810480F581E02D61E006C05E
:1004E000E881F9810480F581E02D62E0CE01DF91A1
:1004F000CF910994DF91CF910895437055276627D6
:100500007727DC01ED91FC910480F581E02D4230EC
:1005100051056105710571F04330510561057105A3
:1005200059F0413051056105710511F062E005C0D7
:1005300063E003C061E001C060E009940F931F9382
:10054000CF93DF93EC01E881F9810480F581E02D00
:100550008C010D5B1F4FD8018C91811102C060E0AE
:1005600001C062E0CE010995E881F9810480F5813E
:10057000E02DD8018C91811102C061E001C063E0DF
:10058000CE010995EBA5FCA5E230F10538F0EE0FA0
:10059000FF1FEE0FFF1F35973197F1F7E881F981C3
:1005A0000480F581E02DD8018C91811102C060E0BA
:1005B00001C062E0CE01DF91CF911F910F910994AC
:1005C000CF93DF93EC0120E030E0A9016B897C89B7
:1005D0008D899E890E94011418161CF4EFA5F8A9B4
:1005E00002C0E9A9FAA9DF91CF9109940F931F9353
:1005F000DC011296EC910E2F10E009301105C0F5C8
:10060000F801E55CFF4F0C940E12DC01ED91FC91BA
:100610000084F185E02D29C0DC01ED91FC9102847C
:10062000F385E02D22C0DC01ED91FC910484F58579
:10063000E02D1BC0DC01ED91FC910684F785E02DD7
:1006400014C0DC01ED91FC910088F189E02D0DC012
:10065000DC01ED91FC910288F389E02D06C0DC01FC
:10066000ED91FC910488F589E02D1F910F9109947B
:100670001F910F910895CF92DF92EF92FF920F9307
:100680001F93CF93DF93FC012281243041F0283067
:1006900031F0233031F0263021F012E003C014E0B5
:1006A00001C013E0EC012796E12CF12CC62ED12CD1
:1006B00001E0C6010E2C02C0959587950A94E2F7D9
:1006C000688180FD6027FE01349780810E94490E79
:1006D000FFEFEF1AFF0A2196E11658F3DF91CF9151
:1006E0001F910F91FF90EF90DF90CF900895CF93DF
:1006F000DF93FC012281222329F1EC0183810E94F6
:10070000580D8C810E94580D8A81843011F08830F8
:1007100029F48D810E94580D8E8105C0833011F01F
:10072000863019F48D810E94580D8EA58F3F51F0AF
:100730000E94580D6DA581E068278EA5DF91CF91AD
:100740000C94490EDF91CF910895CF93DF93FC0174
:1007500022812223A1F0EC010190F081E02D0480A0
:10076000F581E02D60E009958EA58F3F41F00E9454
:10077000580D6DA58EA5DF91CF910C94490EDF9198
:10078000CF9108950E9473141F920F920FB60F928B
:1007900011242F933F934F935F936F937F938F9386
:1007A0009F93AF93BF93EF93FF9385ED92E00E94E9
:1007B000FA00FF91EF91BF91AF919F918F917F913F
:1007C0006F915F914F913F912F910F900FBE0F90BE
:1007D0001F9018951F920F920FB60F9211242F930E
:1007E0008F939F93EF93FF93E091E502F091E602E0
:1007F0008081E091EB02F091EC0282FD12C09081C9
:100800008091EE028F5F8F732091EF02821751F07B
:10081000E091EE02F0E0EB52FD4F958F8093EE02F7
:1008200001C08081FF91EF919F918F912F910F9047
:100830000FBE0F901F901895CF92DF92EF92FF920C
:100840000F931F93CF93DF93FC01078510892189B4
:1008500032894385548565857685041715072607F3
:10086000370711F480E07FC0DC01AD5BBF4F40175C
:100870005107620773071CF481E08C9301C01C923E
:1008800043A154A165A176A1452B462B472B51F3DB
:100890009FB7F894C090CD02D090CE02E090CF02E6
:1008A000F090D00286B5A89B07C08F3F29F02FEFAC
:1008B000C21AD20AE20AF20A9FBFFE2CED2CDC2CEF
:1008C000CC24C80ED11CE11CF11C22E0CC0CDD1C98
:1008D000EE1CFF1C2A95D1F707A110A521A532A572
:1008E00043A154A165A176A1400F511F621F731F40
:1008F000401751076207730730F0C416D506E606A5
:10090000F70668F406C0C416D506E606F70608F42E
:10091000A9CFC016D106E206F30608F0A3CF2C91AA
:1009200083859485A585B685222321F00196A11D96
:10093000B11D03C00197A109B10983879487A587D9
:10094000B687EF010190F081E02D4B855C856D85C8
:100950007E850680F781E02DCE010995CFA2D8A62D
:10096000E9A6FAA681E0DF91CF911F910F91FF9048
:10097000EF90DF90CF9008954F925F926F927F92A9
:10098000AF92BF92CF92DF92EF92FF920F931F939D
:10099000CF93DF93EC015A018B012B893C894D8960
:1009A0005E89B501C8010E94A212882309F451C0D2
:1009B000CF88D88CE98CFA8C2601370177FA7094AD
:1009C00077F87094A3019201B501C8010E94A212A8
:1009D00087FD0BC0A7019601B501C8010E94011453
:1009E00018162CF06501780102C07301620120E045
:1009F00030E0A901C701B6010E94A212811105C011
:100A00001BA21CA21DA21EA220C0A701960160E08D
:100A100074E284E799E40E94A7129F770E94201352
:100A20006BA37CA38DA39EA35E0183E4A80EB11CDF
:100A300011E020E030E0A901C701B6010E940114D5
:100A400018160CF010E0F5011083CB8ADC8AED8AD1
:100A5000FE8ADF91CF911F910F91FF90EF90DF9071
:100A6000CF90BF90AF907F906F905F904F90089520
:100A7000E0910B02F0910C02309729F010920402E1
:100A80001092030209940895CF93DF93AC01E09193
:100A90000D02F0910E023097F1F0909106028091D4
:100AA00005029817C0F090E0292F30E0261737078D
:100AB00054F4D901A355BD4FEA01C20FD31F888159
:100AC0008C939F5FF1CF1092060260930502CB01D9
:100AD000DF91CF910994DF91CF9108950895E0912E
:100AE000060280910502E81730F4F0E0E355FD4F6F
:100AF000808190E008958FEF9FEF08959091060216
:100B000080910502981750F4E92FF0E0E355FD4F6E
:100B1000208130E09F5F9093060202C02FEF3FEFED
:100B2000C90108958091050290E020910602821B80
:100B30009109089585ED8093BC008091BC0084FDEF
:100B4000FCCF10920202089540916602262F30E0F9
:100B5000240F311D21323105DCF4209102022430B2
:100B6000C9F4FC0180E090E0861758F430916602E9
:100B70002191DC01AA5BBD4FA30FB11D2C930196FF
:100B8000F3CF80916602680F6093660280E008955B
:100B900081E0089582E00895CF93DF9300D0CDB730
:100BA000DEB7CB01642F49835A830E94A405498193
:100BB000842F5A81952F0F900F90DF91CF91089538
:100BC000CF93DF931F92CDB7DEB7698361E0CE018B
:100BD00001960E94A40581E090E00F90DF91CF91F3
:100BE000089580E480937C0080917A0080648093F3
:100BF0007A0080917A0086FDFCCF60917800809128
:100C0000790070E0782B7093450260934402072EC0
:100C1000000C880B990B0E94511320E030EC4FE739
:100C200054E40E94A71220E030E849EF53E40E9408
:100C3000061420E030E040E85FE30E943612089599
:100C4000FC01DB01049621912D93E817F907D9F7F0
:100C5000CB01049608959B012C5F3F4FFB0141910E
:100C6000BF01FC014193CF0162177307B9F7CB01B4
:100C70000895CF93DF93CDB7DEB766970FB6F8949C
:100C8000DEBF0FBECDBF8091290290912A0201974D
:100C900069F443E050E061E472E082E793E00E948F
:100CA000CC0510922A021092290247C080913F027F
:100CB0009091400284309105C1F5609119027091C4
:100CC0001A02072E000C880B990B0E9451136B8B94
:100CD0007C8B8D8B9E8BBE016F5F7F4FCE014396C9
:100CE0000E942006BC018BE392E00E942006BC011A
:100CF00087E392E00E942006BC0183E392E00E9419
:100D0000200680911C02898B80911B028A8B42E114
:100D100050E0BE016F5F7F4F82E793E00E94CC05F9
:100D20001092400210923F0208C0059731F4609182
:100D3000000182E793E00E94E00566960FB6F89402
:100D4000DEBF0FBECDBFDF91CF9108950F931F93EC
:100D5000CF93DF93CDB7DEB76E970FB6F894DEBFB3
:100D60000FBECDBF82E793E00E947E05811117C0C0
:100D700081E090E090932A028093290201E412E03E
:100D80009091050280910602981709F48BC082E7C2
:100D900093E00E947E05F80181938F01F1CF8130AD
:100DA00009F044C080E991E00E94D40D8E010F5FEC
:100DB0001F4FB8019091050280910602981761F0CB
:100DC00082E793E06D8F7E8F0E947E05F80181930C
:100DD0008F017E8D6D8DEECF85E292E00E942B0615
:100DE000BC0181E292E00E942B06BC018DE192E001
:100DF0000E942B06BC0185E192E00E942B06BC01FB
:100E0000CE0149960E942B06BC018FE092E00E9421
:100E10002B06698D7A8D8B8D9C8D0E941913709392
:100E200014026093130282E090E00AC0823069F4F9
:100E30008091290290912A020297A1F583E090E027
:100E400090932A02809329022DC0833019F484E004
:100E500090E004C0843039F485E090E09093400243
:100E600080933F021FC0853039F482E793E00E94EF
:100E70007E058093000116C0863049F486E090E03C
:100E800090932A028093290210921B020BC0873094
:100E900049F483E090E090932A028093290281E054
:100EA00080931B026E960FB6F894DEBF0FBECDBFC7
:100EB000DF91CF911F910F9108952F923F924F9202
:100EC0005F926F927F928F929F92AF92BF92CF92DA
:100ED000DF92EF92FF920F931F93CF93DF9300D097
:100EE00000D0CDB7DEB71C01FC0187849088A188B3
:100EF000B28883859485A585B685881A990AAA0A39
:100F0000BB0A63897489858996899B01AC010E941B
:100F100006146B017C01F101638D748D858D968DB6
:100F20009B01AC010E9436129B01AC01C701B601C6
:100F30000E94A7120E94191381149104A104B10404
:100F4000A1F462307105810591050CF07CC0F101BE
:100F500013A214A215A216A2138A148A158A168A3D
:100F600013AA14AA15AA16AA03C1F10103A914A968
:100F700025A936A9ED5BFF4F181419041A041B04A8
:100F8000FCF410161106120613064CF468157905C8
:100F90008A059B054CF52081211155C025C00115FE
:100FA00011052105310509F44EC0681579058A053A
:100FB0009B050CF048C08081882309F444C037C0E9
:100FC0001016110612061306F4F4002711279801D3
:100FD000081919092A093B09601771078207930745
:100FE0001CF42081222379F19B01AC0188279927E9
:100FF000DC01821B930BA40BB50BF10183AB94AB0B
:10100000A5ABB6AB20C00115110521053105D9F0FE
:10101000CC24DD247601C818D908EA08FB086C1531
:101020007D058E059F057CF4808181110CC0309573
:101030002095109501951F4F2F4F3F4FF10103ABA6
:1010400014AB25AB36ABF101C3A8D4A8E5A8F6A82C
:1010500081010D5B1F4FC114D104E104F10491F42F
:1010600087A990ADA1ADB2AD83AF94AFA5AFB6AF38
:1010700081E0181419041A041B040CF080E0F80134
:10108000808340C0F10183AC94ACA5ACB6ACA501A3
:101090009401C501B4010E9436122B013C01C70125
:1010A000B6010E94511320E030E040E850E40E9475
:1010B000061420E030E040E85FE30E9436129B0116
:1010C000AC01C301B2010E94A7129B01AC01C50192
:1010D000B4010E9435124B015C01F101FF96408082
:1010E0005180628073809201A3010E94011418163E
:1010F00014F042015301A401B501F10143AF54AF13
:1011000065AF76AFFFEFCF1ADF0AEF0AFF0AF101F2
:10111000C3AAD4AAE5AAF6AA23AD34AD45AD56AD0F
:10112000CA01B90129833A834B835C830E9420134F
:10113000F10163A374A385A396A329813A814B810E
:101140005C8160E074E284E799E40E94A712F101F7
:10115000638B748B858B968BF8012081211108C0DD
:10116000DC01CB01B058F101838B948BA58BB68B3E
:101170000F900F900F900F90DF91CF911F910F91D3
:10118000FF90EF90DF90CF90BF90AF909F908F90A7
:101190007F906F905F904F903F902F9008951F9297
:1011A0000F920FB60F9211242F933F934F935F939B
:1011B0006F937F938F939F93AF93BF93EF93FF931F
:1011C0008091B900887F803609F49CC068F5883228
:1011D00009F45BC090F4803109F454C038F48823DA
:1011E00009F4F6C0883009F44DC0F6C0883109F41E
:1011F0004CC0803209F45DC0EFC0803409F468C08F
:1012000048F4803309F455C0883309F0E5C0809371
:101210008902D8C0803509F44FC0883509F45DC013
:10122000883409F0D9C0D6C0883909F4C7C0A8F4F9
:10123000883709F467C038F4883609F463C080370A
:1012400009F460C0C9C0883809F4B8C0803909F40D
:101250005FC0803809F0C0C05BC0803B09F486C025
:1012600038F4803A09F466C0883A09F47FC0B4C003
:10127000803C09F4A7C0883C09F4A4C0883B09F469
:101280008AC0AAC08091AC0210C09091AB0280913C
:10129000AA02981770F5E091AB0281E08E0F80935F
:1012A000AB02F0E0E657FD4F80818093BB0085ECF8
:1012B00086C0809389028EC0E091AB0281E08E0FE0
:1012C0008093AB028091BB00F0E0E657FD4F808336
:1012D0009091AB028091AA026EC0E091AB0281E0D6
:1012E0008E0F8093AB028091BB00F0E0E657FD4F7C
:1012F00080838091010281116DC081E080930002A2
:1013000084EA61C083E08093020210928802CFCF0A
:1013100080918802803208F051C0E091880281E01B
:101320008E0F809388028091BB00F0E0E859FD4F5A
:101330008083BDCF85EC8093BC0010920202809127
:101340008802803230F4E0918802F0E0E859FD4FE5
:1013500010826091880270E0E0910702F09108022B
:1013600088E692E009951092880236C084E0809366
:1013700002021092670210926602E0910902F09157
:101380000A02099580916602811105C081E080936F
:10139000660210924602E091670281E08E0F809310
:1013A0006702F0E0EA5BFD4F80818093BB00909183
:1013B000670280916602981708F479CF85E88093D8
:1013C000BC000AC085EC8093BC001092020204C0ED
:1013D000109289020E949A05FF91EF91BF91AF91FF
:1013E0009F918F917F916F915F914F913F912F913D
:1013F0000F900FBE0F901F9018954F925F926F92B3
:101400007F928F929F92AF92BF92CF92DF92EF9294
:10141000FF92CF93DF934B015C01D42F0E941913ED
:101420006B01770FEE08FF08C701B6010E94170E87
:10143000DD2309F46FC08EEA91E00E94D40DCFEF56
:10144000CD0F412C512C32014394D15048F0AAE0E9
:10145000B0E0A30192010E941B122B013C01F5CFC9
:1014600020E030E0A901C501B4010E94011487FD0C
:1014700009C0C701B6010E9451139B01AC01C5010F
:10148000B40106C0C701B6010E945113A501940121
:101490000E9435126B017C01C301B2010E944F13FF
:1014A0009B01AC01C701B6010E9406140E942013E3
:1014B000D62EE72EF82ED92F2AE0822E912CA12CA1
:1014C000B12CA50194010E94CD11CA01B901232BB1
:1014D000242B252B11F0C150F4CFCC2331F080EB1D
:1014E00091E00E94D40DC150F8CF4AE06D2D7E2DC1
:1014F0008F2D9D2FDF91CF91FF90EF90DF90CF90B8
:10150000BF90AF909F908F907F906F905F904F9023
:101510000C94D60DDF91CF91FF90EF90DF90CF909C
:10152000BF90AF909F908F907F906F905F904F9003
:1015300008958F929F92AF92BF92CF92DF92EF92D7
:10154000FF926091CD037091CE038091CF03909173
:10155000D00397FF07C090958095709561957F4F58
:101560008F4F9F4F0E94511320E030E048E453E436
:101570000E94A7126B017C01209137023091380242
:101580004091390250913A020E9435124B015C01A0
:10159000C0923702D0923802E0923902F0923A02B9
:1015A0009B01AC0160913B0270913C0280913D0235
:1015B00090913E020E94361260933B0270933C026F
:1015C00080933D0290933E0282EB91E00E94D40D05
:1015D00041E0C701B6010E94FD098CEA91E00E943A
:1015E000D40D80EC91E00E94D40D41E0C501B4011E
:1015F0000E94FD098CEA91E00E94D40D8FEC91E0ED
:101600000E94D40D60913B0270913C0280913D029A
:1016100090913E0241E00E94FD098CEA91E0FF902A
:10162000EF90DF90CF90BF90AF909F908F900C94F1
:10163000D40D4F925F926F927F928F929F92AF9252
:10164000BF92CF92DF92EF92FF92CF93DF9300D0C1
:1016500000D0CDB7DEB76B017C011092370210923B
:1016600038021092390210923A0210921B02109224
:10167000CD031092CE031092CF031092D00310929C
:10168000D1031092D2031092D3031092D40310927C
:10169000F5031092F6031092F7031092F8031092DC
:1016A000E5031092E6031092E7031092E80310920C
:1016B000D5031092D6031092D7031092D8030E943C
:1016C000F10569837A838B839C8360932F027093E7
:1016D00030028093310290933202C701B6010E941A
:1016E00019136B017C01DB0128EC30E00E9414121D
:1016F0004B015C0140902502509026026090270229
:101700007090280229813A814B815C81C301B2012A
:101710000E94061460932B0270932C0280932D027A
:1017200090932E0280EE91E00E94D40DC501B40189
:101730000E94170E8CEA91E00E94D40D8FEE91E08A
:101740000E94D40D20E030E048E453E4C301B2012C
:101750000E9406142B013C01B601DD0C880B990B8D
:101760000E9451139B01AC01C301B2010E940614F7
:101770000E9419130E94170E8CEA91E00E94D40D6A
:1017800080911C02882349F180918D0390918E03F2
:10179000A0918F03B0919003892B8A2B8B2B61F042
:1017A00010928D0310928E0310928F03109290036B
:1017B0008EE793E00E945D0780912B0290912C02AE
:1017C000A0912D02B0912E02B05880932B029093DD
:1017D0002C02A0932D02B0932E028091D103909100
:1017E000D203A091D303B091D40388159905AA051B
:1017F000BB0561F08092D1039092D203A092D303F3
:10180000B092D40382EC93E00E945D0740912F02D6
:1018100050913002609131027091320282EC93E07B
:101820000E94BC0440912B0250912C0260912D0229
:1018300070912E028EE793E00E94BC0481E08093B9
:101840001B028FB7F8944091D1025091D20260915F
:10185000D3027091D4028FBF2FB7F8948091D10238
:101860009091D202A091D302B091D4022FBF841BD9
:10187000950BA60BB70B8A3F9105A105B105E8F1C1
:101880000E94F1056B017C0160932F02709330027E
:1018900080933102909332029B01AC01609125024A
:1018A0007091260280912702909128020E940614CE
:1018B00060932B0270932C0280932D0290932E0242
:1018C00020E030E048E453E4C701B6010E94A712CB
:1018D0006093330270933402809335029093360202
:1018E0000E94990A8FB7F8944091D1025091D20288
:1018F0006091D3027091D4028FBFC090D103D09079
:10190000D203E090D303F090D4038091CD03909163
:10191000CE03A091CF03B091D003C816D906EA0632
:10192000FB0609F099CFC0908D03D0908E03E09014
:101930008F03F09090038091890390918A03A09186
:101940008B03B0918C03C816D906EA06FB0609F092
:1019500083CF20E030E048E453E460912F0270919F
:10196000300280913102909132020E94A71260935E
:1019700033027093340280933502909336020F90B5
:101980000F900F900F90DF91CF91FF90EF90DF902D
:10199000CF90BF90AF909F908F907F906F905F900F
:1019A0004F900C94990A1F920F920FB60F92112428
:1019B0002F933F934F935F936F937F938F939F9357
:1019C000AF93BF93EF93FF9380911B02882341F065
:1019D00082EC93E00E941C048EE793E00E941C04BA
:1019E000FF91EF91BF91AF919F918F917F916F91F7
:1019F0005F914F913F912F910F900FBE0F901F90CD
:101A00001895CF92DF92EF92FF92CF93DF93EC0184
:101A1000CB8CDC8CED8CFE8C20E030E040E85FE38A
:101A2000C701B6010E94A212882349F16BA97CA9C3
:101A30008DA99EA90E945113A70196010E94061428
:101A40000E9419136BAB7CAB8DAB9EAB86E896E620
:101A5000A9E6B9E48FAB98AFA9AFBAAF80E090E048
:101A6000A0E8BFE38B8F9C8FAD8FBE8FCE01DF913F
:101A7000CF91FF90EF90DF90CF900C945D07DF91B6
:101A8000CF91FF90EF90DF90CF900895009769F08D
:101A9000FC0101900020E9F73197AF01481B590B79
:101AA000BC0185ED92E00C94970080E090E00895F1
:101AB00090E0FC01EC53FF4F2491FC01E055FF4FF7
:101AC0008491882399F090E0880F991FFC01EA55D2
:101AD000FF4FA591B491FC01E456FF4F859194917D
:101AE0008FB7F894EC91E22BEC938FBF0895CF92CF
:101AF000DF92EF92FF92CF93DF93EC0120E030E092
:101B00004AEF53E46F89788D898D9A8D0E94A212D5
:101B1000882309F442C080E090E0AAEFB3E48F8B01
:101B2000988FA98FBA8F80E090E0AAEFB4E4FE010D
:101B3000FF9680839183A283B3838BA99CA9ADA9CF
:101B4000BEA9181619061A061B063CF56B897C8976
:101B50008D899E899B01AC010E9406146B017C015A
:101B60006B8D7C8D8D8D9E8D9B01AC010E943612FC
:101B70009B01AC01C701B6010E94A7120E94191374
:101B80006BAB7CAB8DAB9EABCE01DF91CF91FF9069
:101B9000EF90DF90CF900C945D07DF91CF91FF9095
:101BA000EF90DF90CF9008950C94460D8F929F9206
:101BB000AF92BF920F931F93CF93DF93CDB7DEB752
:101BC000A1970FB6F894DEBF0FBECDBF19A2423069
:101BD00008F44AE08E010F5D1F4F842E912CA12C3A
:101BE000B12CA50194010E94CD11E62FB901CA01C3
:101BF00001501109EA3014F4E05D01C0E95CD8013C
:101C0000EC93232B242B252B61F7C8010E94460D52
:101C1000A1960FB6F894DEBF0FBECDBFDF91CF9176
:101C20001F910F91BF90AF909F908F900895CF928A
:101C3000DF92EF92FF92CF93DF9397FF21C06B016A
:101C40007C01E091D502F091D6020190F081E02D67
:101C50006DE285ED92E00995EC0166277727CB01CF
:101C60006C197D098E099F094AE00E94D60D8C0FE0
:101C70009D1FDF91CF91FF90EF90DF90CF9008955F
:101C80004AE0DF91CF91FF90EF90DF90CF900C94DE
:101C9000D60D90E0FC01E857FF4F3491FC01EC5366
:101CA000FF4F2491FC01E055FF4FE491EE2309F42E
:101CB0003BC0332339F1333091F038F43130A9F09F
:101CC000323001F584B58F7D12C0373091F0383055
:101CD000A1F03430B9F4809180008F7D03C08091F1
:101CE00080008F77809380000DC084B58F7784BD8E
:101CF00009C08091B0008F7703C08091B0008F7DC4
:101D00008093B000F0E0EE0FFF1FE456FF4FA59167
:101D1000B4918FB7F894EC91611103C020952E23F4
:101D200001C02E2B2C938FBF08951F920F920FB6D8
:101D30000F9211242F933F938F939F93AF93BF9351
:101D40008091D1029091D202A091D302B091D4029D
:101D50003091060423E0230F2D3720F40196A11DB6
:101D6000B11D05C026E8230F0296A11DB11D2093C9
:101D700006048093D1029093D202A093D302B09331
:101D8000D4028091CD029091CE02A091CF02B09169
:101D9000D0020196A11DB11D8093CD029093CE0279
:101DA000A093CF02B093D002BF91AF919F918F913A
:101DB0003F912F910F900FBE0F901F901895789420
:101DC00084B5826084BD84B5816084BD85B5826040
:101DD00085BD85B5816085BD80916E0081608093F1
:101DE0006E0010928100809181008260809381005A
:101DF000809181008160809381008091800081606A
:101E0000809380008091B10084608093B1008091C4
:101E1000B00081608093B00080917A0084608093EC
:101E20007A0080917A00826080937A0080917A00B3
:101E3000816080937A0080917A00806880937A0034
:101E40001092C100109225021092260210922702D1
:101E50001092280210922102109222021092230264
:101E60001092240210921D0210921E0210921F0264
:101E70001092200286E00E94580D87E00E94580DC3
:101E800060E086E00E94490E60E087E00E94490E13
:101E900082EC93E00E94770D8EE793E00E94770D2D
:101EA000E091E502F091E60282E08083E091E102B8
:101EB000F091E2021082E091E302F091E4028FECF3
:101EC00080831092ED02E091E902F091EA0286E04F
:101ED0008083E091E702F091E80280818061808355
:101EE000E091E702F091E802808188608083E091D0
:101EF000E702F091E802808180688083E091E70248
:101F0000F091E80280818F7D808380E18093BA0028
:101F100088E395E090930A028093090284E495E0B7
:101F20009093080280930702109206021092050215
:101F300010920402109203021092020281E0809338
:101F400001021092000261E082E10E94490E61E00C
:101F500083E10E94490E8091B9008E7F8093B90081
:101F60008091B9008D7F8093B90088E48093B80098
:101F700085E48093BC0089E396E090930C02809303
:101F80000B0286EA96E090930E0280930D02F8947D
:101F9000109280001092810080E496E09093890076
:101FA0008093880080918100886080938100809177
:101FB000810081608093810080916F0082608093B6
:101FC0006F00789403E011E08091290290912A0239
:101FD000029709F03FC0809101018823D9F18CE379
:101FE00091E00E94D40D60912502709126028091AB
:101FF00027029091280242E00E94FD098CEA91E0BC
:102000000E94D40D88E491E00E94D40D60912102D9
:1020100070912202809123029091240242E00E945A
:10202000FD098CEA91E00E94D40D80E591E00E94C8
:10203000D40D60911D0270911E0280911F0290913B
:10204000200242E00E94FD098CEA91E00E94D40D3A
:10205000109201018091290290912A02039709F0C0
:1020600089C010921C0260E086E00E94490E60E088
:1020700087E00E94490E0093000110931B0210920A
:102080001A0210921902C0E0D0E0809113029091E0
:102090001402C817D90784F58091190290911A0289
:1020A000019690931A02809319028FE591E00E94A5
:1020B000D40D83E791E00E94D40D609119027091D4
:1020C0001A02072E000C880B990B0E94170E8CEA3F
:1020D00091E00E94D40D60911502709116028091DA
:1020E0001702909118020E94190B80911C028127FF
:1020F00080931C022196C9CF20E030E0A9016091B5
:102100000F027091100280911102909112020E94B0
:10211000011418164CF58091190290911A0201963B
:1021200090931A028093190281E891E00E94D40DE5
:1021300083E791E00E94D40D6091190270911A0218
:10214000072E000C880B990B0E94170E8CEA91E069
:102150000E94D40D60910F027091100280911102C3
:10216000909112020E94190B10922A0210922902D9
:1021700010921B02C0910001C0FF02C060E001C0CC
:1021800061E086E00E94490EC1FF02C060E001C02C
:1021900061E087E00E94490E0E94840115CF8F9272
:1021A0009F92AF92BF92CF92DF92EF92FF920F93E6
:1021B0001F93CF93DF93E5EDF2E01382128288EE56
:1021C00093E0A0E0B0E084839583A683B78326E004
:1021D00031E03183208325EC30E03587248724ECFF
:1021E00030E03787268720EC30E0318B208B21ECE4
:1021F00030E0338B228B22EC30E0358B248B26ECC5
:1022000030E0378B268B118E128E138E148EE2E700
:10221000F3E01382128284839583A683B78386E1D9
:1022200091E091838083E2ECF3E086E2A82E81E0E6
:10223000B82EB182A0828824839482821386148669
:10224000158616861786108A118A128A138A148AAE
:10225000158A168AC12CD12C90E8E92E9FE3F92E1D
:10226000C78AD08EE18EF28E138E148E158E168E46
:10227000C78ED0A2E1A2F2A213A214A215A216A2A6
:1022800001E010E014A703A799249A9496A617A238
:1022900010A611A612A682E0838383E08483D4E093
:1022A000D583C5E0C68313AA14AA15AA16AA17AA2D
:1022B00010AE11AE12AE13AE14AE15AE16AEC09285
:1022C0000104D0920204E0920304F09204041092FC
:1022D00005041782108611861286CF010E947703AB
:1022E00082EC93E00E94010DEEE7F3E0B182A08260
:1022F000828213861486158616861786108A118A9E
:10230000128A138A148A158A168AC78AD08EE18E99
:10231000F28E138E148E158E168EC78ED0A2E1A269
:10232000F2A213A214A215A216A214A703A796A69E
:1023300017A210A611A612A6D383C483D583C68381
:1023400013AA14AA15AA16AA17AA10AE11AE12AE95
:1023500013AE14AE15AE16AEC092BD03D092BE033E
:10236000E092BF03F092C0031092C103178210865F
:1023700011861286CF010E9477038EE793E0DF91EA
:10238000CF911F910F91FF90EF90DF90CF90BF9072
:10239000AF909F908F900C94010DA1E21A2EAA1B72
:1023A000BB1BFD010DC0AA1FBB1FEE1FFF1FA21705
:1023B000B307E407F50720F0A21BB30BE40BF50B02
:1023C000661F771F881F991F1A9469F7609570958B
:1023D000809590959B01AC01BD01CF010895052E1C
:1023E00097FB1EF400940E94061257FD07D00E942E
:1023F000CD1107FC03D04EF40C9406125095409575
:10240000309521953F4F4F4F5F4F089590958095A0
:10241000709561957F4F8F4F9F4F0895EE0FFF1F6F
:102420000590F491E02D09940E942612B7FF0895BB
:10243000821B930B08950E942612A59F900DB49FB6
:10244000900DA49F800D911D11240895A29FB001AD
:10245000B39FC001A39F700D811D1124911DB29FD8
:10246000700D811D1124911D08955058BB27AA2776
:102470000E944D120C94C7130E94B91338F00E94A9
:10248000C01320F039F49F3F19F426F40C94B613CE
:102490000EF4E095E7FB0C94B013E92F0E94D813DB
:1024A00058F3BA17620773078407950720F079F489
:1024B000A6F50C94FA130EF4E0950B2EBA2FA02D6E
:1024C0000B01B90190010C01CA01A0011124FF27E1
:1024D000591B99F0593F50F4503E68F11A16F040DC
:1024E000A22F232F342F4427585FF3CF46953795DB
:1024F0002795A795F0405395C9F77EF41F16BA0BA0
:10250000620B730B840BBAF09150A1F0FF0FBB1F4D
:10251000661F771F881FC2F70EC0BA0F621F731F96
:10252000841F48F4879577956795B795F7959E3FF3
:1025300008F0B0CF9395880F08F09927EE0F979584
:10254000879508950E948C1308F481E008950E94F5
:10255000BB120C94C7130E94C01358F00E94B91309
:1025600040F029F45F3F29F00C94B01351110C9402
:10257000FB130C94B6130E94D81368F39923B1F39C
:10258000552391F3951B550BBB27AA276217730799
:10259000840738F09F5F5F4F220F331F441FAA1F2D
:1025A000A9F335D00E2E3AF0E0E832D091505040E9
:1025B000E695001CCAF72BD0FE2F29D0660F771F97
:1025C000881FBB1F261737074807AB07B0E809F07D
:1025D000BB0B802DBF01FF2793585F4F3AF09E3F02
:1025E000510578F00C94B0130C94FB135F3FE4F3A7
:1025F000983ED4F3869577956795B795F7959F5F45
:10260000C9F7880F911D9695879597F90895E1E090
:10261000660F771F881FBB1F621773078407BA07EF
:1026200020F0621B730B840BBA0BEE1F88F7E0954A
:1026300008950E9420136894B1110C94FB1308951F
:102640000E94E01388F09F5798F0B92F9927B7514F
:10265000B0F0E1F0660F771F881F991F1AF0BA9546
:10266000C9F714C0B13091F00E94FA13B1E0089597
:102670000C94FA13672F782F8827B85F39F0B93F89
:10268000CCF3869577956795B395D9F73EF49095F9
:102690008095709561957F4F8F4F9F4F0895E89477
:1026A00009C097FB3EF490958095709561957F4F9A
:1026B0008F4F9F4F9923A9F0F92F96E9BB27939548
:1026C000F695879577956795B795F111F8CFFAF458
:1026D000BB0F11F460FF1BC06F5F7F4F8F4F9F4F89
:1026E00016C0882311F096E911C0772321F09EE8E7
:1026F000872F762F05C0662371F096E8862F70E04D
:1027000060E02AF09A95660F771F881FDAF7880F26
:102710009695879597F90895990F0008550FAA0B7C
:10272000E0E8FEEF16161706E807F907C0F01216E4
:102730001306E407F50798F0621B730B840B950BE7
:1027400039F40A2661F0232B242B252B21F408953C
:102750000A2609F4A140A6958FEF811D811D0895D9
:1027600097F99F6780E870E060E008959FEF80EC44
:10277000089500240A9416161706180609060895E7
:1027800000240A9412161306140605060895092E4D
:102790000394000C11F4882352F0BB0F40F4BF2BBC
:1027A00011F460FF04C06F5F7F4F8F4F9F4F0895FC
:1027B00057FD9058440F551F59F05F3F71F04795F2
:1027C000880F97FB991F61F09F3F79F087950895D7
:1027D000121613061406551FF2CF4695F1DF08C0F6
:1027E000161617061806991FF1CF86957105610513
:1027F00008940895E894BB2766277727CB0197F9BB
:1028000008950E948C1308F48FEF08950E94191404
:102810000C94C7130E94B91338F00E94C01320F023
:10282000952311F00C94B0130C94B61311240C944E
:10283000FB130E94D81370F3959FC1F3950F50E0DE
:10284000551F629FF001729FBB27F00DB11D639F62
:10285000AA27F00DB11DAA1F649F6627B00DA11D08
:10286000661F829F2227B00DA11D621F739FB00DAE
:10287000A11D621F839FA00D611D221F749F33271E
:10288000A00D611D231F849F600D211D822F762FB7
:102890006A2F11249F5750409AF0F1F088234AF094
:1028A000EE0FFF1FBB1F661F771F881F9150504000
:1028B000A9F79E3F510580F00C94B0130C94FB13C4
:1028C0005F3FE4F3983ED4F3869577956795B79587
:1028D000F795E7959F5FC1F7FE2B880F911D9695A1
:1028E000879597F9089581E090E0F8940C94781416
:0428F000F894FFCF8A
:1028F4000301000000001B019700E400C200D600A1
:10290400620100000000E005CC0592057E056F051C
:102914006E0500000000A50377033B03F602E00206
:102924009E027D0249022802D2018E015769726516
:102934002073697A653A20007475726E733A2000C8
:1029440073706F6F6C206C656E6774683A20004911
:102954006E206D756C7469706C65206C617965723C
:10296400730A0074686973206C61796572203D2074
:1029740000496E206C617374206C617965720A0081
:102984004E6577206A6F6220706572616D6574654B
:102994007273207265636569766564200A002E008F
:1029A400300074656D705F7475726E73203D200025
:1029B40064656C74615F7475726E73203D2000638E
:1029C400757272656E745F7475726E73203D20004B
:1029D40073706F6F6C207374657073203D20007387
:1029E400687574746C65207374657073203D200081
:00000001FF
